:100000000C9472000C9493000C9493000C94930045
:100010000C9493000C9493000C9493000C94930014
:100020000C9493000C9493000C9493000C94950002
:100030000C9493000C9493000C9493000C949300F4
:100040000C9493000C9493000C9493000C949300E4
:100050000C9493000C9493000C9493000C949300D4
:100060000C9493000C9493000C9493000C949300C4
:100070000C9493000C9493000C9493000C949300B4
:100080000C9493000C9493000C9493000C949300A4
:100090000C9493000C9493000C9493000C94930094
:1000A0000C9493000C9493000C9493000C94930084
:1000B0000C9493000C9493000C9493000C94930074
:1000C0000C9493000C9493000C9493000C94930064
:1000D0000C9493000C9493000C9493000C94930054
:1000E0000C94930011241FBECFEFD1E2DEBFCDBF31
:1000F00000E00CBF12E0A0E0B2E0E6EBF8E000E0C8
:100100000BBF02C007900D92A832B107D9F722E0C9
:10011000A8E2B2E001C01D92AE32B207E1F70E9440
:10012000E9000C9459040C9400001F920F920FB632
:100130000F9211248F9381E0809329028F910F9069
:100140000FBE0F901F9018951092C50082E3809308
:10015000C40086E08093C20088E98093C1000895BE
:100160009091C00095FFFCCF8093C60008958091C8
:10017000C00087FFFCCF8091C60008959C0190913C
:10018000C00097FFFCCF9091C600F901919399238D
:1001900069F09A3021F09D3011F09F01F0CF10826C
:1001A0002E5F3F4F922F981B892F08959E2F981BEB
:1001B000892F0895FC012081222351F031969091DE
:1001C000C00095FFFCCF2093C60021912111F7CFED
:1001D0000895CF93DF93CDB7DEB7D4500FB6F89420
:1001E000DEBF0FBECDBF0E94A40080910701109218
:1001F0000701809108019FEF9093080180916800AA
:1002000084608093680080916D0090936D00789475
:10021000CE0101964C01AA24A394B12CF0E14F2EFB
:10022000F2E05F2E80912902882309F462C01092C7
:1002300029026090060180912802681609F459C0CD
:100240006AE2C62E62E0D62EEE24E394F12C10E092
:1002500000E0712CA801440F551F9501042E02C027
:10026000220F331F0A94E2F7C5010E2C02C0880F3B
:10027000991F0A94E2F7282B392B8091280290E0ED
:1002800082239323042E02C0959587950A94E2F762
:10029000880F991F880F991F2621372102C0359595
:1002A00027954A95E2F7282B392BF901E050FE4FAC
:1002B0008081F6019081890F81936F011F928F9346
:1002C0001F930F935F924F929F928F920E94830190
:1002D000C4010E94DA000F5F1F4FF2E0EF0EF11C25
:1002E0000FB6F894DEBF0FBECDBF0430110509F084
:1002F000B1CF9FEFE1EEF4E09150E040F040E1F744
:1003000000C000008FCF0F931F93CF93DF93CDB723
:10031000DEB72E970FB6F894DEBF0FBECDBF0E89A5
:100320001F8986E08C831A8309838FEF9FE79E8362
:100330008D83AE01465E5F4F688D798DCE0101964B
:100340000E94B3012F813885020F131FF80110821C
:100350002E960FB6F894DEBF0FBECDBFDF91CF91C2
:100360001F910F9108952F923F924F925F926F923B
:100370007F928F929F92AF92BF92CF92DF92EF9235
:10038000FF920F931F93CF93DF9300D000D000D044
:100390001F921F92CDB7DEB77C013B018A01FC01A1
:1003A00017821682838181FFDDC1CE0101965C0137
:1003B000F7019381F30193FD859193FF81913F01B3
:1003C000882309F453C1853239F493FD859193FF55
:1003D00081913F01853229F4B70190E00E94CB035F
:1003E000E7CF912C212C312CFFE1F31538F08B3223
:1003F00011F190F4803209F1833229F137FC3CC0CD
:1004000020ED280F2A3050F536FE20C08AE0989E55
:10041000200D1124922E06C08D3291F0803371F799
:10042000689430F8F30193FD859193FF81913F012A
:100430008111DACF21C0689431F8689432F8F2CF94
:10044000689433F8EFCF689434F8ECCFEAE02E9E4E
:10045000200D1124222E689435F8E4CF8E3229F431
:1004600036FC04C1689436F8DDCF8C3619F46894F4
:1004700037F8D8CF8836B1F2982F9F7D95549330B6
:10048000E0F08336A1F18337C1F1833509F063C011
:100490002801F2E04F0E511CF801C080D180692D77
:1004A00070E036FC02C06FEF7FEFC6010E94B5031B
:1004B0004C01689437F882010AC00C5F1F4FFFE3BC
:1004C000F98388248394912C6501E89437F833FEEE
:1004D0002DC0522C8114910471F5552009F468CF78
:1004E000B70180E290E00E94CB035A94F6CFF80166
:1004F000808189830E5F1F4FE4CF2801F2E04F0E09
:10050000511CF801C080D180692D70E036FC02C01A
:100510006FEF7FEFC6010E94C0034C018201D5CF6F
:10052000B70180E290E00E94CB032A9428141904BA
:1005300009F0B0F7CECFF60137FC859137FE8191F7
:100540006F01B70190E00E94CB0351105A94F1E083
:100550008F1A9108BFCF843619F0893609F077C019
:10056000F80137FE6BC060817181828193810C5FDD
:100570001F4FF32DFF763F2E97FF09C09095809572
:10058000709561957F4F8F4F9F4F689437F82AE0A1
:1005900030E0A5010E94FB03C82ECA188C2C432C06
:1005A00036FE0CC0E89440F8C91440F434FE05C08F
:1005B00032FC03C0F32DFE7E4F2E892C44FEAAC0D0
:1005C000FE01EC0DF11D8081803309F09CC0242DCB
:1005D000297E422E842D8870582E43FCAAC040FEEE
:1005E000A4C09C2C821418F42C0C922C981844FE55
:1005F000A6C0B70180E390E00E94CB0342FE09C091
:1006000088E790E041FE02C088E590E0B7010E94D3
:10061000CB03C91408F49FC0CA94D12C9FEFC91A08
:10062000D90ACA0CDB1CF60182916F01B70190E078
:100630000E94CB03AC14BD04B1F74FCF6081718130
:10064000072E000C880B990B0E5F1F4F92CFD32CF7
:10065000E894D4F82AE030E08537E1F1232D297FB2
:10066000D22E8F36A9F1F0F4883551F1F701868149
:1006700097812B960FB6F894DEBF0FBECDBFDF91EA
:10068000CF911F910F91FF90EF90DF90CF90BF908F
:10069000AF909F908F907F906F905F904F903F9022
:1006A0002F900895803749F0883701F7D4FE02C0B3
:1006B0006894D2F820E130E00DC06894D4F8F6CF09
:1006C00034FE03C0822F8660D82E20E132E002C0C3
:1006D00028E030E0F801D7FE0FC06081718182818F
:1006E00093810C5F1F4FA5010E94FB03C82ECA18FF
:1006F0003D2CE89437F852CF6081718190E080E022
:100700000E5F1F4FF0CF42FC02C0839463CF8394EF
:10071000839460CF842D867809F45CCFF6CFB7013F
:1007200080E290E00E94CB0383948214C0F3512CAA
:100730005ECF522C5818821408F459CFF8CF842D6C
:10074000867809F466CF8BE241FE80E247FC8DE2B9
:10075000B70190E05CCFB70180E390E00E94CB034B
:100760009A9457CF8FEF9FEF84CFFC010590615093
:1007700070400110D8F7809590958E0F9F1F0895B7
:10078000FC016150704001900110D8F78095909560
:100790008E0F9F1F08950F931F93CF93DF93182FF2
:1007A000092FEB018B8181FD09C01FEF0FEF812F16
:1007B000902FDF91CF911F910F91089582FF14C068
:1007C0002E813F818C819D81281739073CF4E88177
:1007D000F981CF0101969983888310838E819F814F
:1007E00001969F838E83E3CFE885F985812F199544
:1007F000892BA1F3DACFFA01AA27283051F1203151
:1008000081F1E8946F936E7F6E5F7F4F8F4F9F4FA4
:10081000AF4FB1E03ED0B4E03CD0670F781F891FE6
:100820009A1FA11D680F791F8A1F911DA11D6A0FB4
:10083000711D811D911DA11D20D009F468943F9167
:100840002AE0269F11243019305D3193DEF6CF0166
:100850000895462F4770405D4193B3E00FD0C9F72C
:10086000F6CF462F4F70405D4A3318F0495D31FD99
:100870004052419302D0A9F7EACFB4E0A6959795EC
:10088000879577956795BA95C9F7009761057105C2
:1008900008959B01AC010A2E06945795479537950C
:1008A0002795BA95C9F7620F731F841F951FA01D66
:0608B0000895F894FFCF4B
:1008B6000001FF00FF000001010000FF00FF010032
:1008C600656E636F6465722025642076616C6F7255
:0808D60065203A25640A0000C8
:00000001FF
