:100000000C9474000C9495000C9495000C9495003D
:100010000C9495000C9495000C9495000C9495000C
:100020000C9495000C9495000C9495000C949500FC
:100030000C9495000C9495000C9495000C949500EC
:100040000C9495000C9495000C9495000C949500DC
:100050000C9495000C9495000C9495000C949500CC
:100060000C9495000C9495000C9495000C949500BC
:100070000C9495000C9495000C9495000C949500AC
:100080000C9495000C9495000C9495000C9495009C
:100090000C9495000C9495000C9495000C9495008C
:1000A0000C9495000C9495000C9495000C9495007C
:1000B0000C9495000C9495000C9495000C9495006C
:1000C0000C9495000C9495000C9495000C9495005C
:1000D0000C9495000C9495000C9495000C9495004C
:1000E0000C9495000C94970011241FBECFEFD1E221
:1000F000DEBFCDBF00E00CBF12E0A0E0B2E0E6EB57
:10010000FBE000E00BBF02C007900D92AC34B107DA
:10011000D9F722E0ACE4B2E001C01D92A236B207EA
:10012000E1F70E94EA000C94D9050C9400008A3093
:1001300049F09091C00095FFFCCF8093C60090E0FD
:1001400080E008959091C00095FFFCCF9DE09093D2
:10015000C600EFCF9093C5008093C40086E08093E3
:10016000C20088E98093C10008959091C00095FF76
:10017000FCCF8093C60008958091C00087FFFCCF1C
:100180008091C60008958091C000881F8827881F2D
:100190000895FC012081222351F031969091C000F6
:1001A00095FFFCCF2093C60021912111F7CF089530
:1001B00080E092E090935F0280935E021092C5000F
:1001C00082E38093C40086E08093C20088E9809334
:1001D000C10008950E94D80081B1806F81B98FE07D
:1001E00082B98CE492E09F938F938EE092E09F938C
:1001F0008F930E941F030F900F900F900F90FFEEB0
:10020000DF2EC9E1D2E088248394A2E07A2EB3E005
:100210006B2E14E0512E05E0402E32C020935A027E
:10022000817099279F938F931F928EE08F93DF9316
:10023000CF930E941F031595079515950795159562
:100240000795802F81700F900F900F900F900F9057
:100250000F9090915B028917F9F080935B02017017
:1002600011271F930F931F928FE08F93DF93CF93EC
:100270000E941F030F900F900F900F900F900F9000
:100280003FEDE32E46E0942E57E0A52E6FEBF62EC1
:1002900078E0B72EE9E0CE2ED2B800B10F7010E0B2
:1002A000009510952FEF81EE94E021508040904012
:1002B000E1F700C00000C8018170992720914C022D
:1002C000281781F080934C029F938F931F921F9267
:1002D000DF93CF930E941F030F900F900F900F900A
:1002E0000F900F90C80195958795282F2170309118
:1002F0004D02231791F020934D02817099279F930F
:100300008F931F928F92DF93CF930E941F030F90C2
:100310000F900F900F900F900F90C80195958795B3
:1003200095958795282F217030914E02231791F0D3
:1003300020934E02817099279F938F931F927F92F3
:10034000DF93CF930E941F030F900F900F900F9099
:100350000F900F901595079515950795159507958D
:10036000802F817090914F02891791F080934F02F6
:10037000017011271F930F931F926F92DF93CF93FA
:100380000E941F030F900F900F900F900F900F90EF
:10039000E2B800B10F7010E0009510959FEF21EECC
:1003A00084E0915020408040E1F700C00000C80187
:1003B0008170992720915002281781F08093500274
:1003C0009F938F931F925F92DF93CF930E941F039F
:1003D0000F900F900F900F900F900F90C801959570
:1003E0008795282F217030915102231791F0209387
:1003F0005102817099279F938F931F924F92DF93A1
:10040000CF930E941F030F900F900F900F900F90AB
:100410000F90C8019595879595958795282F217000
:1004200030915202231791F0209352028170992744
:100430009F938F931F929F92DF93CF930E941F03EE
:100440000F900F900F900F900F900F9015950795AC
:100450001595079515950795802F817090915302FA
:10046000891791F080935302017011271F930F9306
:100470001F92AF92DF93CF930E941F030F900F90B4
:100480000F900F900F900F90F2B800B10F7010E026
:10049000009510958FEF91EE24E081509040204020
:1004A000E1F700C00000C801817099272091540233
:1004B000281781F0809354029F938F931F92BF92CD
:1004C000DF93CF930E941F030F900F900F900F9018
:1004D0000F900F90C80195958795282F2170309126
:1004E0005502231791F020935502817099279F930D
:1004F0008F931F92CF92DF93CF930E941F030F9091
:100500000F900F900F900F900F90C80195958795C1
:1005100095958795282F217030915602231799F0D1
:1005200020935602817099279F938F931F928AE0A0
:100530008F93DF93CF930E941F030F900F900F9024
:100540000F900F900F901595079515950795159598
:100550000795802F817090915702891799F08093A9
:100560005702017011271F930F931F928BE08F93F7
:10057000DF93CF930E941F030F900F900F900F9067
:100580000F900F908FE782B900B10F7010E00095C7
:1005900010952FEF81EE94E0215080409040E1F7DC
:1005A00000C00000C80181709927209158022817C7
:1005B00089F0809358029F938F931F928CE08F93C2
:1005C000DF93CF930E941F030F900F900F900F9017
:1005D0000F900F90C80195958795282F2170309125
:1005E0005902231799F020935902817099279F93FC
:1005F0008F931F928DE08F93DF93CF930E941F0301
:100600000F900F900F900F900F900F90C80195953D
:10061000879595958795282F217030915A0223133D
:10062000FDCD159507951595079515950795802F7F
:10063000817090915B02891709F42ECE0ECECF9374
:10064000DF93CDB7DEB7AE014A5F5F4FFA0161912C
:100650007191AF0180915E0290915F020E9433031D
:10066000DF91CF9108952F923F924F925F926F92B8
:100670007F928F929F92AF92BF92CF92DF92EF9232
:10068000FF920F931F93CF93DF9300D000D000D041
:100690001F921F92CDB7DEB77C013B018A01FC019E
:1006A00017821682838181FFDDC1CE0101965C0134
:1006B000F7019381F30193FD859193FF81913F01B0
:1006C000882309F453C1853239F493FD859193FF52
:1006D00081913F01853229F4B70190E00E944B05DA
:1006E000E7CF912C212C312CFFE1F31538F08B3220
:1006F00011F190F4803209F1833229F137FC3CC0CA
:1007000020ED280F2A3050F536FE20C08AE0989E52
:10071000200D1124922E06C08D3291F0803371F796
:10072000689430F8F30193FD859193FF81913F0127
:100730008111DACF21C0689431F8689432F8F2CF91
:10074000689433F8EFCF689434F8ECCFEAE02E9E4B
:10075000200D1124222E689435F8E4CF8E3229F42E
:1007600036FC04C1689436F8DDCF8C3619F46894F1
:1007700037F8D8CF8836B1F2982F9F7D95549330B3
:10078000E0F08336A1F18337C1F1833509F063C00E
:100790002801F2E04F0E511CF801C080D180692D74
:1007A00070E036FC02C06FEF7FEFC6010E94350596
:1007B0004C01689437F882010AC00C5F1F4FFFE3B9
:1007C000F98388248394912C6501E89437F833FEEB
:1007D0002DC0522C8114910471F5552009F468CF75
:1007E000B70180E290E00E944B055A94F6CFF801E1
:1007F000808189830E5F1F4FE4CF2801F2E04F0E06
:10080000511CF801C080D180692D70E036FC02C017
:100810006FEF7FEFC6010E9440054C018201D5CFEA
:10082000B70180E290E00E944B052A942814190435
:1008300009F0B0F7CECFF60137FC859137FE8191F4
:100840006F01B70190E00E944B0551105A94F1E0FE
:100850008F1A9108BFCF843619F0893609F077C016
:10086000F80137FE6BC060817181828193810C5FDA
:100870001F4FF32DFF763F2E97FF09C0909580956F
:10088000709561957F4F8F4F9F4F689437F82AE09E
:1008900030E0A5010E947B05C82ECA188C2C432C81
:1008A00036FE0CC0E89440F8C91440F434FE05C08C
:1008B00032FC03C0F32DFE7E4F2E892C44FEAAC0CD
:1008C000FE01EC0DF11D8081803309F09CC0242DC8
:1008D000297E422E842D8870582E43FCAAC040FEEB
:1008E000A4C09C2C821418F42C0C922C981844FE52
:1008F000A6C0B70180E390E00E944B0542FE09C00C
:1009000088E790E041FE02C088E590E0B7010E94D0
:100910004B05C91408F49FC0CA94D12C9FEFC91A83
:10092000D90ACA0CDB1CF60182916F01B70190E075
:100930000E944B05AC14BD04B1F74FCF60817181AB
:10094000072E000C880B990B0E5F1F4F92CFD32CF4
:10095000E894D4F82AE030E08537E1F1232D297FAF
:10096000D22E8F36A9F1F0F4883551F1F701868146
:1009700097812B960FB6F894DEBF0FBECDBFDF91E7
:10098000CF911F910F91FF90EF90DF90CF90BF908C
:10099000AF909F908F907F906F905F904F903F901F
:1009A0002F900895803749F0883701F7D4FE02C0B0
:1009B0006894D2F820E130E00DC06894D4F8F6CF06
:1009C00034FE03C0822F8660D82E20E132E002C0C0
:1009D00028E030E0F801D7FE0FC06081718182818C
:1009E00093810C5F1F4FA5010E947B05C82ECA187A
:1009F0003D2CE89437F852CF6081718190E080E01F
:100A00000E5F1F4FF0CF42FC02C0839463CF8394EC
:100A1000839460CF842D867809F45CCFF6CFB7013C
:100A200080E290E00E944B0583948214C0F3512C25
:100A30005ECF522C5818821408F459CFF8CF842D69
:100A4000867809F466CF8BE241FE80E247FC8DE2B6
:100A5000B70190E05CCFB70180E390E00E944B05C6
:100A60009A9457CF8FEF9FEF84CFFC010590615090
:100A700070400110D8F7809590958E0F9F1F0895B4
:100A8000FC016150704001900110D8F7809590955D
:100A90008E0F9F1F08950F931F93CF93DF93182FEF
:100AA000092FEB018B8181FD09C01FEF0FEF812F13
:100AB000902FDF91CF911F910F91089582FF14C065
:100AC0002E813F818C819D81281739073CF4E88174
:100AD000F981CF0101969983888310838E819F814C
:100AE00001969F838E83E3CFE885F985812F199541
:100AF000892BA1F3DACFFA01AA27283051F120314E
:100B000081F1E8946F936E7F6E5F7F4F8F4F9F4FA1
:100B1000AF4FB1E03ED0B4E03CD0670F781F891FE3
:100B20009A1FA11D680F791F8A1F911DA11D6A0FB1
:100B3000711D811D911DA11D20D009F468943F9164
:100B40002AE0269F11243019305D3193DEF6CF0163
:100B50000895462F4770405D4193B3E00FD0C9F729
:100B6000F6CF462F4F70405D4A3318F0495D31FD96
:100B70004052419302D0A9F7EACFB4E0A6959795E9
:100B8000879577956795BA95C9F7009761057105BF
:100B900008959B01AC010A2E069457954795379509
:100BA0002795BA95C9F7620F731F841F951FA01D63
:060BB0000895F894FFCF48
:100BB60000000002000000009700000000007374AF
:100BC600617475733A25640A0063616D62696F200A
:100BD600737461746F2064693A20256420636F6EB4
:100BE60020737461746F3A25642065207374617490
:0C0BF600757320C3A82025643A200A0073
:00000001FF
