:100000000C9474000C9495000C9495000C9495003D
:100010000C9495000C9495000C9495000C9495000C
:100020000C9495000C9495000C9495000C949500FC
:100030000C9495000C9495000C9495000C949500EC
:100040000C9495000C9495000C9495000C949500DC
:100050000C9495000C9495000C9495000C949500CC
:100060000C9495000C9495000C9495000C949500BC
:100070000C9495000C9495000C9495000C949500AC
:100080000C9495000C9495000C9495000C9495009C
:100090000C9495000C9495000C9495000C9495008C
:1000A0000C9495000C9495000C9495000C9495007C
:1000B0000C9495000C9495000C9495000C9495006C
:1000C0000C9495000C9495000C9495000C9495005C
:1000D0000C9495000C9495000C9495000C9495004C
:1000E0000C9495000C94DC0111241FBECFEFD1E2DB
:1000F000DEBFCDBF00E00CBF12E0A0E0B2E0E6E35F
:10010000FDE000E00BBF02C007900D92AA31B107DD
:10011000D9F722E0AAE1B2E001C01D92A232B207F3
:10012000E1F70E942F020C9499060C940000FC0148
:100130008FEE82B98FE891E00197F1F700C00000DF
:1001400080B18F708095982F9170682F617070E0EA
:100150009B0140911A02542F5170591709F42AC17A
:10016000908391E051E081FD22C150E041FB662780
:1001700060F9651731F0DF01A90FB11D52605C9382
:100180009F5F51E082FD11C150E042FB662760F99C
:10019000651731F0DF01A90FB11D54605C939F5FBB
:1001A00051E083FD00C150E043FB442740F945176F
:1001B00031F0DF01A90FB11D56605C939F5F8FED99
:1001C00082B9AFE8B1E01197F1F700C0000080B14B
:1001D0008F708095582F517080FD206140911A02D8
:1001E00044FB662760F9651731F0DF01A90FB11DE7
:1001F00058605C939F5F51E081FDD3C050E045FBA8
:10020000662760F9651731F0DF01A90FB11D5A604B
:100210005C939F5F51E082FDC2C050E046FB6627C1
:1002200060F9651731F0DF01A90FB11D5C605C93C7
:100230009F5F51E083FDB1C050E047FB442740F988
:10024000451731F0DF01A90FB11D5E605C939F5F20
:100250008FEB82B9AFE8B1E01197F1F700C0000071
:1002600080B18F708095582F517080FD3160409122
:100270001B02642F6170561731F0DF01A90FB11D09
:1002800050615C939F5F51E081FD85C050E041FB70
:10029000662760F9561731F0DF01A90FB11D5261D1
:1002A0005C939F5F51E082FD74C050E042FB662783
:1002B00060F9561731F0DF01A90FB11D54615C934D
:1002C0009F5F51E083FD63C050E043FB442740F94A
:1002D000541731F0DF01A90FB11D56615C939F5F88
:1002E0008FE782B9AFE8B1E01197F1F700C00000E5
:1002F00080B18F708095682F617080FD3061409172
:100300001A0250911B0254FB772770F9671731F0DE
:10031000DF01A90FB11D68616C939F5F61E081FDF2
:1003200034C060E055FB772770F9671731F0DF01C3
:10033000A90FB11D6A616C939F5F61E082FD23C0CC
:1003400060E056FB772770F9671731F0DF01A90FDE
:10035000B11D6C616C939F5F61E083FD12C060E032
:10036000852F881F8827881F681729F0E90FF11D3E
:100370006E6160839F5F30931B0220931A02892F66
:1003800008953068EDCF3064DCCF3062CBCF386079
:100390009CCF34608BCF32607ACF20684ECF206400
:1003A0003DCF20622CCF2860FFCE2460EECE9B0193
:1003B0002260DCCE90E0D6CE8A3049F09091C00029
:1003C00095FFFCCF8093C60090E080E00895909167
:1003D000C00095FFFCCF9DE09093C600EFCF9093B7
:1003E000C5008093C40086E08093C20088E98093B2
:1003F000C10008959091C00095FFFCCF8093C60086
:1004000008958091C00087FFFCCF8091C6000895B9
:100410008091C000881F8827881F0895FC012081D3
:10042000222351F031969091C00095FFFCCF20938C
:10043000C60021912111F7CF089580E092E09093BA
:100440001F0280931E021092C50082E38093C400B5
:1004500086E08093C20088E98093C1000895CF931D
:10046000DF93CDB7DEB760970FB6F894DEBF0FBE4F
:10047000CDBF0E941D0280EF81B98FE082B98FEE5F
:10048000982E9FEDA92E2FEBB22E0FE73EE0C32E44
:1004900032E0D32E92B88FE891E00197F1F700C0D7
:1004A000000020B12F702095422F4170842F90E0E2
:1004B00030911A02532F517010E0451711F0498303
:1004C00011E051E021FD77C150E031FB442740F9B4
:1004D000451749F0E1E0F0E0EC0FFD1FE10FF11DE1
:1004E000526050831F5F41E022FD63C140E032FB58
:1004F000552750F9541749F0E1E0F0E0EC0FFD1FEB
:10050000E10FF11D446040831F5F41E023FD4FC1B7
:1005100040E033FB332730F9341749F0E1E0F0E0F5
:10052000EC0FFD1FE10FF11D466040831F5FA2B875
:10053000EFE8F1E03197F1F700C0000020B12F7033
:100540002095422F417020FD806130911A0234FBCA
:10055000552750F9541749F0E1E0F0E0EC0FFD1F8A
:10056000E10FF11D486040831F5F41E021FD1DC187
:1005700040E035FB552750F9541749F0E1E0F0E031
:10058000EC0FFD1FE10FF11D4A6040831F5F41E04A
:1005900022FD09C140E036FB552750F9541749F0B8
:1005A000E1E0F0E0EC0FFD1FE10FF11D4C60408336
:1005B0001F5F41E023FDF5C040E037FB332730F9F2
:1005C000341749F0E1E0F0E0EC0FFD1FE10FF11D01
:1005D0004E6040831F5FB2B8EFE8F1E03197F1F76A
:1005E00000C0000020B12F702095422F417020FDE7
:1005F000916030911B02532F5170451749F0E1E093
:10060000F0E0EC0FFD1FE10FF11D406140831F5F23
:1006100041E021FDC4C040E031FB552750F94517AA
:1006200049F0E1E0F0E0EC0FFD1FE10FF11D426148
:1006300040831F5F41E022FDB0C040E032FB552700
:1006400050F9451749F0E1E0F0E0EC0FFD1FE10F34
:10065000F11D446140831F5F41E023FD9CC040E0E9
:1006600033FB332730F9431749F0E1E0F0E0EC0FBA
:10067000FD1FE10FF11D466140831F5F02B9EFE8E6
:10068000F1E03197F1F700C0000020B12F70209504
:10069000322F317020FD906140911A0250911B025F
:1006A00054FB662760F9361749F0E1E0F0E0EC0F03
:1006B000FD1FE10FF11D386130831F5F31E021FD27
:1006C00068C030E055FB662760F9361749F0E1E075
:1006D000F0E0EC0FFD1FE10FF11D3A6130831F5F69
:1006E00031E022FD46C030E056FB662760F9361740
:1006F00049F0E1E0F0E0EC0FFD1FE10FF11D3C617E
:1007000030831F5F31E023FD36C030E0252F221FEC
:100710002227221F3217B1F1E1E0F0E0EC0FFD1FBC
:10072000E10FF11D3E6130831F5F90931B028093A8
:100730001A02F12CE12CE1E0F0E0EC0FFD1FEE0DD0
:10074000FF1D808186951F928F93808181701F92FB
:100750008F93DF92CF920E94DF03FFEFEF1AFF0A21
:100760000F900F900F900F900F900F90E11618F3CD
:1007700091CE9064B9CF9068252F221F2227221F87
:100780003213CACF90931B0280931A021111D1CF5A
:1007900081CE906297CF986063CF94604FCF926084
:1007A0003BCF80680ACF8064F6CE8062E2CE88605C
:1007B000B0CE84609CCE4260842F90E086CECF93F2
:1007C000DF93CDB7DEB7AE014A5F5F4FFA016191AB
:1007D0007191AF0180911E0290911F020E94F3035C
:1007E000DF91CF9108952F923F924F925F926F9237
:1007F0007F928F929F92AF92BF92CF92DF92EF92B1
:10080000FF920F931F93CF93DF9300D000D000D0BF
:100810001F921F92CDB7DEB77C013B018A01FC011C
:1008200017821682838181FFDDC1CE0101965C01B2
:10083000F7019381F30193FD859193FF81913F012E
:10084000882309F453C1853239F493FD859193FFD0
:1008500081913F01853229F4B70190E00E940B0697
:10086000E7CF912C212C312CFFE1F31538F08B329E
:1008700011F190F4803209F1833229F137FC3CC048
:1008800020ED280F2A3050F536FE20C08AE0989ED1
:10089000200D1124922E06C08D3291F0803371F715
:1008A000689430F8F30193FD859193FF81913F01A6
:1008B0008111DACF21C0689431F8689432F8F2CF10
:1008C000689433F8EFCF689434F8ECCFEAE02E9ECA
:1008D000200D1124222E689435F8E4CF8E3229F4AD
:1008E00036FC04C1689436F8DDCF8C3619F4689470
:1008F00037F8D8CF8836B1F2982F9F7D9554933032
:10090000E0F08336A1F18337C1F1833509F063C08C
:100910002801F2E04F0E511CF801C080D180692DF2
:1009200070E036FC02C06FEF7FEFC6010E94F50554
:100930004C01689437F882010AC00C5F1F4FFFE337
:10094000F98388248394912C6501E89437F833FE69
:100950002DC0522C8114910471F5552009F468CFF3
:10096000B70180E290E00E940B065A94F6CFF8019E
:10097000808189830E5F1F4FE4CF2801F2E04F0E84
:10098000511CF801C080D180692D70E036FC02C096
:100990006FEF7FEFC6010E9400064C018201D5CFA8
:1009A000B70180E290E00E940B062A9428141904F3
:1009B00009F0B0F7CECFF60137FC859137FE819173
:1009C0006F01B70190E00E940B0651105A94F1E0BC
:1009D0008F1A9108BFCF843619F0893609F077C095
:1009E000F80137FE6BC060817181828193810C5F59
:1009F0001F4FF32DFF763F2E97FF09C090958095EE
:100A0000709561957F4F8F4F9F4F689437F82AE01C
:100A100030E0A5010E943B06C82ECA188C2C432C3E
:100A200036FE0CC0E89440F8C91440F434FE05C00A
:100A300032FC03C0F32DFE7E4F2E892C44FEAAC04B
:100A4000FE01EC0DF11D8081803309F09CC0242D46
:100A5000297E422E842D8870582E43FCAAC040FE69
:100A6000A4C09C2C821418F42C0C922C981844FED0
:100A7000A6C0B70180E390E00E940B0642FE09C0C9
:100A800088E790E041FE02C088E590E0B7010E944F
:100A90000B06C91408F49FC0CA94D12C9FEFC91A41
:100AA000D90ACA0CDB1CF60182916F01B70190E0F4
:100AB0000E940B06AC14BD04B1F74FCF6081718169
:100AC000072E000C880B990B0E5F1F4F92CFD32C73
:100AD000E894D4F82AE030E08537E1F1232D297F2E
:100AE000D22E8F36A9F1F0F4883551F1F7018681C5
:100AF00097812B960FB6F894DEBF0FBECDBFDF9166
:100B0000CF911F910F91FF90EF90DF90CF90BF900A
:100B1000AF909F908F907F906F905F904F903F909D
:100B20002F900895803749F0883701F7D4FE02C02E
:100B30006894D2F820E130E00DC06894D4F8F6CF84
:100B400034FE03C0822F8660D82E20E132E002C03E
:100B500028E030E0F801D7FE0FC06081718182810A
:100B600093810C5F1F4FA5010E943B06C82ECA1837
:100B70003D2CE89437F852CF6081718190E080E09D
:100B80000E5F1F4FF0CF42FC02C0839463CF83946B
:100B9000839460CF842D867809F45CCFF6CFB701BB
:100BA00080E290E00E940B0683948214C0F3512CE3
:100BB0005ECF522C5818821408F459CFF8CF842DE8
:100BC000867809F466CF8BE241FE80E247FC8DE235
:100BD000B70190E05CCFB70180E390E00E940B0684
:100BE0009A9457CF8FEF9FEF84CFFC01059061500F
:100BF00070400110D8F7809590958E0F9F1F089533
:100C0000FC016150704001900110D8F780959095DB
:100C10008E0F9F1F08950F931F93CF93DF93182F6D
:100C2000092FEB018B8181FD09C01FEF0FEF812F91
:100C3000902FDF91CF911F910F91089582FF14C0E3
:100C40002E813F818C819D81281739073CF4E881F2
:100C5000F981CF0101969983888310838E819F81CA
:100C600001969F838E83E3CFE885F985812F1995BF
:100C7000892BA1F3DACFFA01AA27283051F12031CC
:100C800081F1E8946F936E7F6E5F7F4F8F4F9F4F20
:100C9000AF4FB1E03ED0B4E03CD0670F781F891F62
:100CA0009A1FA11D680F791F8A1F911DA11D6A0F30
:100CB000711D811D911DA11D20D009F468943F91E3
:100CC0002AE0269F11243019305D3193DEF6CF01E2
:100CD0000895462F4770405D4193B3E00FD0C9F7A8
:100CE000F6CF462F4F70405D4A3318F0495D31FD15
:100CF0004052419302D0A9F7EACFB4E0A695979568
:100D0000879577956795BA95C9F70097610571053D
:100D100008959B01AC010A2E069457954795379587
:100D20002795BA95C9F7620F731F841F951FA01DE1
:060D30000895F894FFCFC6
:100D36000000000200000000DC0100000000653A2F
:0A0D46005B25642C2025645D0A0083
:00000001FF
