:100000000C9474000C9495000C9495000C9495003D
:100010000C9495000C9495000C9495000C9495000C
:100020000C9495000C9495000C9495000C949500FC
:100030000C9495000C9495000C9495000C949500EC
:100040000C9495000C9495000C9495000C949500DC
:100050000C9495000C9495000C9495000C949500CC
:100060000C9495000C9495000C9495000C949500BC
:100070000C9495000C9495000C9495000C949500AC
:100080000C9495000C9495000C9495000C9495009C
:100090000C9495000C9495000C9495000C9495008C
:1000A0000C9495000C9495000C9495000C9495007C
:1000B0000C9495000C9495000C9495000C9495006C
:1000C0000C9495000C9495000C9495000C9495005C
:1000D0000C9495000C9495000C9495000C9495004C
:1000E0000C9495000C94970011241FBECFEFD1E221
:1000F000DEBFCDBF00E00CBF12E0A0E0B2E0E8E957
:10010000F7E000E00BBF02C007900D92A232B107EA
:10011000D9F722E0A2E2B2E001C01D92A832B207F4
:10012000E1F70E94EA000C94CA030C9400008A30A4
:1001300049F09091C00095FFFCCF8093C60090E0FD
:1001400080E008959091C00095FFFCCF9DE09093D2
:10015000C600EFCF9093C5008093C40086E08093E3
:10016000C20088E98093C10008959091C00095FF76
:10017000FCCF8093C60008958091C00087FFFCCF1C
:100180008091C60008958091C000881F8827881F2D
:100190000895FC012081222351F031969091C000F6
:1001A00095FFFCCF2093C60021912111F7CF089530
:1001B00080E092E090932502809324021092C50083
:1001C00082E38093C40086E08093C20088E9809334
:1001D000C10008950E94D80081B18C7F81B983E06D
:1001E00082B910E0E0E093E0F92ECEE1D2E080B1F8
:1001F0000F2D081BF0E0EE0FFF1FEE0FFF1FE02B8F
:10020000E25FFD4F8081180F1F921F93DF93CF9302
:100210000E941001E02F0F900F900F900F90E7CFEA
:10022000CF93DF93CDB7DEB7AE014A5F5F4FFA01E0
:1002300061917191AF0180912402909125020E94F9
:100240002401DF91CF9108952F923F924F925F92B8
:100250006F927F928F929F92AF92BF92CF92DF92D6
:10026000EF92FF920F931F93CF93DF9300D000D0B4
:1002700000D01F921F92CDB7DEB77C013B018A01EF
:10028000FC0117821682838181FFDDC1CE010196B8
:100290005C01F7019381F30193FD859193FF8191B7
:1002A0003F01882309F453C1853239F493FD8591C8
:1002B00093FF81913F01853229F4B70190E00E94BC
:1002C0003C03E7CF912C212C312CFFE1F31538F0C2
:1002D0008B3211F190F4803209F1833229F137FC2D
:1002E0003CC020ED280F2A3050F536FE20C08AE0B1
:1002F000989E200D1124922E06C08D3291F08033ED
:1003000071F7689430F8F30193FD859193FF819123
:100310003F018111DACF21C0689431F8689432F836
:10032000F2CF689433F8EFCF689434F8ECCFEAE07A
:100330002E9E200D1124222E689435F8E4CF8E32A3
:1003400029F436FC04C1689436F8DDCF8C3619F4F4
:10035000689437F8D8CF8836B1F2982F9F7D95549E
:100360009330E0F08336A1F18337C1F1833509F092
:1003700063C02801F2E04F0E511CF801C080D1800B
:10038000692D70E036FC02C06FEF7FEFC6010E945E
:1003900026034C01689437F882010AC00C5F1F4F96
:1003A000FFE3F98388248394912C6501E89437F85E
:1003B00033FE2DC0522C8114910471F5552009F49F
:1003C00068CFB70180E290E00E943C035A94F6CFD8
:1003D000F801808189830E5F1F4FE4CF2801F2E08E
:1003E0004F0E511CF801C080D180692D70E036FCA1
:1003F00002C06FEF7FEFC6010E9431034C01820102
:10040000D5CFB70180E290E00E943C032A942814E3
:10041000190409F0B0F7CECFF60137FC859137FE0D
:1004200081916F01B70190E00E943C0351105A94F2
:10043000F1E08F1A9108BFCF843619F0893609F0A0
:1004400077C0F80137FE6BC0608171818281938132
:100450000C5F1F4FF32DFF763F2E97FF09C090953D
:100460008095709561957F4F8F4F9F4F689437F8B7
:100470002AE030E0A5010E946C03C82ECA188C2C1B
:10048000432C36FE0CC0E89440F8C91440F434FE06
:1004900005C032FC03C0F32DFE7E4F2E892C44FE96
:1004A000AAC0FE01EC0DF11D8081803309F09CC0D3
:1004B000242D297E422E842D8870582E43FCAAC0FC
:1004C00040FEA4C09C2C821418F42C0C922C98187A
:1004D00044FEA6C0B70180E390E00E943C0342FEC8
:1004E00009C088E790E041FE02C088E590E0B701CE
:1004F0000E943C03C91408F49FC0CA94D12C9FEFFA
:10050000C91AD90ACA0CDB1CF60182916F01B70126
:1005100090E00E943C03AC14BD04B1F74FCF608162
:100520007181072E000C880B990B0E5F1F4F92CF25
:10053000D32CE894D4F82AE030E08537E1F1232D7C
:10054000297FD22E8F36A9F1F0F4883551F1F701C9
:10055000868197812B960FB6F894DEBF0FBECDBF74
:10056000DF91CF911F910F91FF90EF90DF90CF908F
:10057000BF90AF909F908F907F906F905F904F90C3
:100580003F902F900895803749F0883701F7D4FEC7
:1005900002C06894D2F820E130E00DC06894D4F82D
:1005A000F6CF34FE03C0822F8660D82E20E132E0E1
:1005B00002C028E030E0F801D7FE0FC060817181F1
:1005C000828193810C5F1F4FA5010E946C03C82E8E
:1005D000CA183D2CE89437F852CF6081718190E0C1
:1005E00080E00E5F1F4FF0CF42FC02C0839463CFC8
:1005F0008394839460CF842D867809F45CCFF6CF02
:10060000B70180E290E00E943C0383948214C0F31F
:10061000512C5ECF522C5818821408F459CFF8CFC1
:10062000842D867809F466CF8BE241FE80E247FC98
:100630008DE2B70190E05CCFB70180E390E00E94CB
:100640003C039A9457CF8FEF9FEF84CFFC01059026
:10065000615070400110D8F7809590958E0F9F1FC4
:100660000895FC016150704001900110D8F7809509
:1006700090958E0F9F1F08950F931F93CF93DF9335
:10068000182F092FEB018B8181FD09C01FEF0FEFA0
:10069000812F902FDF91CF911F910F91089582FFAD
:1006A00014C02E813F818C819D81281739073CF42D
:1006B000E881F981CF0101969983888310838E8127
:1006C0009F8101969F838E83E3CFE885F985812FF3
:1006D0001995892BA1F3DACFFA01AA27283051F115
:1006E000203181F1E8946F936E7F6E5F7F4F8F4F63
:1006F0009F4FAF4FB1E03ED0B4E03CD0670F781FC2
:10070000891F9A1FA11D680F791F8A1F911DA11DA6
:100710006A0F711D811D911DA11D20D009F46894DF
:100720003F912AE0269F11243019305D3193DEF687
:10073000CF010895462F4770405D4193B3E00FD03D
:10074000C9F7F6CF462F4F70405D4A3318F0495D28
:1007500031FD4052419302D0A9F7EACFB4E0A6950B
:100760009795879577956795BA95C9F7009761052D
:10077000710508959B01AC010A2E06945795479583
:1007800037952795BA95C9F7620F731F841F951F78
:08079000A01D0895F894FFCFAD
:1007980000000002000000009700000000000001B7
:1007A800FF00FF000001010000FF00FF01002564B9
:0207B8000A0035
:00000001FF
